:100000000C9460050C94A7050C94A7050C94A70507
:100010000C94A7050C94A7050C94A7050C94A705B0
:100020000C94A7050C94A7050C941B2E0C94ED2E94
:100030000C9451280C94A7050C94A7050C94A705C3
:100040000C94A7050C94A7050C94A7050C94A70580
:100050000C94A7050C94AA280C94A7050C94A7054A
:100060000C94A7050C94A7050C94A7050C94A70560
:100070000C94A7050C94A7050C94A7050C94A70550
:100080000C94A7050C94A7050C94A7050C94A70540
:100090000C94A7050C94A7050C94A7050C94A70530
:1000A0000C94A7050C94A7050C94A705B416B716D5
:1000B000BF16C416C916CE16D316D816DD16E2160C
:1000C000E716EC16EE16F116F416F716FA16FD16EC
:1000D000FF160417971D971DC91DC91D161E341E36
:1000E000551F551F3F1ED41EE51EE51E451F551FFB
:1000F000551F4E1FF51FF51F07200720FE1F072065
:1001000007200720F51FF51F0320072007200320E5
:100110005A2F812F7930812F7930CD2FF02F7930E0
:100120004730563007634236B79BD8A71A3968560E
:1001300018AEBAAB558C1D3CB7CC5763BD6DEDFD09
:10014000753EF6177231BF000000803F05A84CCD08
:10015000B2D44EB93836A9020C50B9918688083C01
:10016000A6AAAA2ABE000000803F696E69745F6279
:1001700061636B6C696768745F70696E28290A0037
:10018000165C1E001F002000210022002300240016
:100190002B0014001A000800150017001C0018009E
:1001A000390004001600070009000A000B000D00CA
:1001B000E10064001D001B0006001900050011008D
:1001C000E000E300E2008B0000002C002C000000A7
:1001D0002500260027002D002E0035002A004B00A8
:1001E0000C00120013002F003000310000004E0000
:1001F0000E000F0033003400320028000000000021
:1002000010003600370038008700E500520000007B
:100210008A000000E6000151E400500051004F0048
:1002200035003A003B003C003D003E003F004000EE
:1002300001000100010001000100010001000100B6
:100240000100010002510100010001000100010054
:100250000100010001000100010001000100010096
:100260000100010001000100000001000100000088
:100270004100420043004400450001004C00A90039
:100280000100AC00AE00AB000100A8000000AA0015
:100290000100010001000100010001000000000058
:1002A0000100010001000100010001004B000000FD
:1002B000010000000100015101004A004E004D0004
:1002C000C15CCE5CCF5CD05CD15CD25CD35CD45CD6
:1002D0000100010001000100005C010001000100BB
:1002E00001000100025101000100010001000100B4
:1002F00001510100010001000100010001000100A5
:1003000001000100010001000000C45CC45C0000A9
:10031000D55C01000100010001000100C35CCA5C62
:100320000100010001000100010001000000CB5CA0
:1003300001000100010001000100010000000000B7
:10034000010001000100010001000100C85C000083
:1003500001000000010001510100C75CC95CC65CDE
:1003600044454255473A2064697361626C65642E66
:100370000A0044454255473A20656E61626C6564E7
:100380002E0A000A0025303862003A20002530325B
:1003900058000A722F632030313233343536370A31
:1003A00000290A002575002F002575005D2800250D
:1003B00064002000256400200025640020002564DE
:1003C000007C0025303258006D6F7573656B657960
:1003D000205B62746E7C782079207620685D2872BC
:1003E00065702F61636C293A205B007267626C69EB
:1003F0006768742074696D65722064697361626CEA
:10040000652E0A007267626C696768742074696D92
:10041000657220656E61626C65642E0A00726762A7
:100420006C696768742073657420687376205B4E0E
:100430004F454550524F4D5D3A2025752C25752C62
:1004400025750A007267626C696768742073657449
:1004500020687376205B454550524F4D5D3A20250C
:10046000752C25752C25750A007267626C696768A2
:1004700074207261696E626F77207365742068738F
:10048000763A2025642C25642C25642C25750A00D9
:100490007267626C696768742064697361626C6515
:1004A000205B454550524F4D5D3A207267626C6942
:1004B0006768745F636F6E6669672E656E61626CF4
:1004C00065203D2025750A007267626C6967687453
:1004D00020656E61626C65205B454550524F4D5DF5
:1004E0003A207267626C696768745F636F6E6669F1
:1004F000672E656E61626C65203D2025750A00726D
:1005000067626C6967687420746F67676C65205BED
:10051000454550524F4D5D3A207267626C6967687D
:10052000745F636F6E6669672E656E61626C6520CD
:100530003D2025750A007267626C69676874206DDA
:100540006F6465205B4E4F454550524F4D5D3A20DC
:1005500025750A007267626C69676874206D6F6444
:1005600065205B454550524F4D5D3A2025750A0088
:100570007267626C696768745F696E69742072671C
:10058000626C696768745F636F6E6669672E6D6F12
:100590006465203D20302E205772697465206465A3
:1005A0006661756C742076616C75657320746F205C
:1005B000454550524F4D2E0A007267626C6967685C
:1005C000745F696E6974206565636F6E6669672024
:1005D0006973206E6F7420656E61626C65642E0AAB
:1005E000007267626C696768745F696E6974207312
:1005F00074617274210A007267626C696768745F63
:10060000696E69742063616C6C65642E0A007267A0
:10061000626C696768745F636F6E6669672E73707A
:10062000656564203D2025640A007267626C696715
:1006300068745F636F6E6669672E76616C203D201B
:1006400025640A007267626C696768745F636F6E25
:100650006669672E736174203D2025640A00726705
:10066000626C696768745F636F6E6669672E687530
:1006700065203D2025640A007267686C69676874AC
:100680005F636F6E6669672E6D6F6465203D202520
:10069000640A007267626C696768745F636F6E6694
:1006A00069672E656E61626C65203D2025640A00D5
:1006B0007267626C696768745F636F6E66696720F2
:1006C000454550524F4D3A0A001E0F0500047F3F2A
:1006D0001F643214643214783C1E1E140A05FFAAEB
:1006E0007F55406261636B6C6967687420737465E1
:1006F000703A2025750A006261636B6C69676874E3
:100700002064697361626C650A006261636B6C6985
:1007100067687420656E61626C650A006261636B74
:100720006C6967687420746F67676C653A2025751B
:100730000A006261636B6C69676874206465637248
:10074000656173653A2025750A006261636B6C69A7
:1007500067687420696E6372656173653A202575F8
:100760000A0000010101010101010101020202026E
:10077000020202020203030303030303030404044B
:100780000404040405050505050606060606070714
:1007900007070708080808090909090A0A0A0B0BCC
:1007A0000B0C0C0C0D0D0D0E0E0E0F0F0F1010116B
:1007B00011111212131314141515161617171818F1
:1007C00019191A1A1B1B1C1D1D1E1E1F2020212259
:1007D00022232424252626272829292A2B2C2D2D9F
:1007E0002E2F30313232333435363738393A3B3CBC
:1007F0003D3E3F404142434445464748494A4C4DAF
:100800004E4F50515354555658595A5B5D5E5F6177
:100810006264656668696B6C6D6F7072737577780A
:100820007A7B7D7E8082838587888A8C8E8F919368
:100830009596989A9C9EA0A2A3A5A7A9ABADAFB18F
:10084000B3B5B7BABCBEC0C2C4C6C9CBCDCFD1D474
:10085000D6D8DBDDDFE2E4E7E9EBEEF0F3F5F8FA1A
:10086000FDFF0A002530325820006B6579626F6108
:1008700072645F7265706F72743A20000A002530EE
:100880003258006B6579626F6172645F7365745F83
:100890006C65643A200064656C5F6B65795F6269C2
:1008A000743A2063616E27742064656C3A202530A9
:1008B00032580A006164645F6B65795F6269743AFB
:1008C0002063616E2774206164643A2025303258B9
:1008D0000A005B735D004B6579626F61726420731F
:1008E000746172742E0A005B575D005B535D005BA0
:1008F000525D005B445D005B435D00240363006C5C
:10090000007500650062006F006100720064002FD6
:1009100000360036002F00720065007600330000BC
:1009200000140343006C007500650062006F0061F5
:10093000007200640000000403090409025B000364
:100940000100A0FA090400000103010100092111BE
:100950000100012240000705810308000A09040183
:1009600000010300000009211101000122B6000767
:1009700005820320000A09040200020300000009A6
:100980002111010001222200070583032000010735
:100990000503032000011201100100000008EDC151
:1009A00070230100010200010631FF0974A1010951
:1009B00075150026FF00952075088102097615003F
:1009C00026FF00952075089102C005010902A101CA
:1009D00085020901A1000509190129081500250151
:1009E0009508750181020501093009311581257FBE
:1009F00095027508810609381581257F95017508CE
:100A00008106050C0A38021581257F95017508813C
:100A100006C0C005010980A101850319012AB7009C
:100A2000150126B700950175108100C0050C09015C
:100A3000A101850419012AA002150126A002950131
:100A400075108100C005010906A10185050507197A
:100A5000E029E715002501950875018102050719B0
:100A60000029EF1500250195F0750181020508198F
:100A7000012905950575019102950175039101C044
:100A800005010906A101050719E029E7150025015F
:100A90009508750181029501750881010507190006
:100AA00029FF150026FF0095067508810005081925
:100AB000012905950575019102950175039101C004
:100AC00011241FBECFEFDAE0DEBFCDBF04B603FEB8
:100AD00027C08091910390919203A0919303B091CC
:100AE00094038730904BA740B04BD1F41092910300
:100AF00010929203109293031092940314BE84B741
:100B0000877F84BF0FB6F894A895809160008861B4
:100B100080936000109260000FBEE0E0F8E309955A
:100B200011E0A0E0B1E0E4ECFAE602C005900D921D
:100B3000AA3DB107D9F723E0AAEDB1E001C01D92AB
:100B4000A139B207E1F70E944E2B0C9460350C944A
:100B50000000FF93EF93E091DA01F091DB01309711
:100B600009F00995EF91FF910895FC01859180307E
:100B700011F0EFDFFBCF0895FF27E0E230E247FFFF
:100B80000CC0419597FF09C0EDE260957095809586
:100B90009095611D711D811D911D27FF02C021953A
:100BA00030E350E2AA27660F771F881F991FAA1FFC
:100BB000A41710F0A41B63955A95A9F7AA3008F062
:100BC000A95FA05DAF93F39561157105810591054E
:100BD00041F7ED3211F4EF93F395F21718F43F93C8
:100BE000F395FBCF8F91B5DFFA95E1F70895E99181
:100BF000F9918591803021F0853219F0AADFF9CF83
:100C0000089520E0E89455915532C1F3503311F422
:100C1000689455915A3348F4505390F3220F022EA2
:100C2000220F220F200D250FF4CF0EF4219589916C
:100C30009991533619F3533729F1533559F1BC01C2
:100C400088279927E8945C3621F4899199916894D2
:100C50005591543639F446EF7EF077FF0DC08FEF93
:100C60009FEF0AC055374AE039F0583540E121F08E
:100C7000523642E009F00895FF93EF937DDFEF9144
:100C8000FF91B7CFFF93EF93FC0181918030B9F3CF
:100C900060DFFBCFFF93EF9368DFF1CFDF93CF935C
:100CA000CDB7DEB72596A3DFCF91DF9108958AE611
:100CB00091E00E94B505569A279A549A5E982F980B
:100CC0005C980895811104C05E9A2F9A5C9A0895E9
:100CD0005E982F985C98089581E0089581E00895CA
:100CE0000C946E0608950C9472061F93CF93DF93B5
:100CF00000D000D01F92CDB7DEB749835A836B83F3
:100D000030916F0289819A81311114C0662359F0A4
:100D1000222349F00E942E25182F682F89819A815D
:100D20000E94D72403C00E940225182F69817A816E
:100D3000812F04C00E942E2569817A810F900F9027
:100D40000F900F900F90DF91CF911F910C9474072B
:100D5000FC01262F408151816281738184810C9432
:100D60007506CF93DF93EC0160E00E94A806BE01F8
:100D7000DF91CF910C9473060E946026811102C00E
:100D80000E9410270E9464070E9457060C94DB09FA
:100D90000C94D70908950E94E31F0E94CA062FEF02
:100DA00084E39CE0215080409040E1F700C00000C7
:100DB0000C94D0280F931F93CF93DF93EC0161E045
:100DC0000E94A8068C01BE010E947006882309F4C7
:100DD00050C0BE01C8010E944918882309F449C0C7
:100DE000BE01C8010E941719882309F442C0BE0140
:100DF000C8010E9469198823E1F1BE01C8010E945F
:100E0000941A8823B1F1BE01C8010E949D1688235F
:100E100081F18A81882331F101308CE5180751F086
:100E20000F3D8CE51807D9F001151C45D9F40E9437
:100E3000CB061FC080910703C82FC095C170C0FBAF
:100E400080F980930703CC2329F082E793E00E9486
:100E5000B5050FC080E693E00E94B5050BC00E9467
:100E6000102707C0CE01DF91CF911F910F910C94F5
:100E70006C06C0E08C2FDF91CF911F910F910895E8
:100E80008295982F937344E0949F900111248C7C59
:100E900086958695282B822F8575880F2A7A269528
:100EA000822B089508950C94520781E00895CF9302
:100EB000C82F0E945507882329F0C1FF02C02C9A31
:100EC00001C02C98CF910895249A2C980895CF931F
:100ED000C82F0E9453078C2F0E945707CF91089567
:100EE00080E090E008950895E72FF0E09AE0899F70
:100EF000E00DF11D112483E0EE0FFF1F8A95E1F74D
:100F0000E60FF11DEE0FFF1FE058FE4F8591949103
:100F10000895880F991FFC01ED57FC4F859194911E
:100F20000895CF93DF930E9474070E94A908EC01F3
:100F30008115904508F041C0C11580E4D80708F03C
:100F4000D1C0C83ED10510F5C03ED10508F0FDC0A6
:100F5000C83AD10578F4C53AD10508F0A2C0C1302D
:100F6000D10509F4F2C008F4EEC0C430D10508F090
:100F7000ECC0E9C0CF3BD10508F49BC0C03CD10513
:100F800008F4E1C0CE01805C91099EC0C11590E2D9
:100F9000D90758F4C11521E0D20708F0D6C0CD3EDC
:100FA000D10508F4D0C0D065D0C0C11580E3D80702
:100FB00008F08EC0CE019F7087C0C11595E5D90796
:100FC00008F043C0C11524E5D20708F0A2C0C1153E
:100FD00082E5D80708F5C11591E5D90708F085C065
:100FE000CE0174E0969587957A95E1F783709C2FF2
:100FF000937021E030E002C0220F331F9A95E2F790
:101000003C68382BCF70C695C69580E2C89FE0013A
:101010001124C22BD32B99C09E01237033278C2F10
:1010200086958695C115D34508F064C0C1E0D0E02F
:1010300002C0CC0FDD1F2A95E2F720E2829FC0019B
:101040001124C82BD92BDC6880C0C11529E5D20733
:10105000A0F4C11588E5D80708F060C0C11596E571
:10106000D90708F070C08C2F0E943D098F71C82FDE
:10107000D0E0DC2FCC27D06268C0C1152AE5D207AA
:1010800008F451C0CE0190568115904208F05BC023
:101090008D2F8F710E943D09DD27D0628F71D82B73
:1010A00054C0C55AD0E0C65ADE4FC881D0E0D064E3
:1010B0004CC0C85AD0E0CC0FDD1FC45DDE4F099094
:1010C000D881C02DD46441C00E948907EC013DC085
:1010D000CE019927D3FF03C0EC01D86C36C0EC01D8
:1010E000D06C33C0DF70D06A30C0DC2FCC27C16F2A
:1010F000D06A2BC0C1E0D0E002C0CC0FDD1F2A9522
:10110000E2F720E2829FC0011124C82BD92BDA68B4
:101110001CC0DC2FCC27C46FD06A17C0DC2FCC27B3
:10112000C06FD06A12C08C2F8F700E943D0994E06E
:10113000D695C7959A95E1F7CF70D0E0DC2FCC27F4
:10114000D069C82B02C0C0E0D0E0CE01DF91CF91C2
:1011500008958238910569F1B0F48133910509F45D
:101160006DC048F48932910509F463C08A32910553
:1011700009F469C008958533910509F455C0893390
:101180009105B9F00895833E910569F138F4803EE8
:101190009105B1F0823E910509F10895863E9105D1
:1011A000A9F1873E9105B9F1843E910509F064C02B
:1011B00023C02091820320FD4FC021FD4DC0089522
:1011C0008091820380FD44C08091830380FF44C0EE
:1011D0008091820384FD42C083EE4DC080918203E2
:1011E00082FF38C0F5CF8091820382FD33C08091A9
:1011F000830380FD31C0ECCF8091830381FF32C037
:101200008091820384FD2AC087EE35C080918203DD
:1012100083FF26C0F5CF8091820383FD21C080919A
:10122000830381FD1FC0ECCF8091820385FD1CC02C
:101230001DC08091820385FD19C016C08091820374
:1012400086FD16C017C08091820386FD13C010C0B2
:1012500089E311C082EE0FC080EE0DC080E00BC0AC
:1012600086EE09C084EE07C089E205C085E303C0AD
:101270008AE201C081E390E008959091820392FF99
:101280000DC0282F2871283019F4877F846006C08C
:10129000282F2471243011F48B7F886093FF0DC0B8
:1012A000282F2871283119F4877E846106C0282FE1
:1012B0002471243111F48B7E88612091830320FFF7
:1012C0000DC0382F3871383019F4877F816006C01F
:1012D000382F3171313011F48E7F886021FF0DC0BD
:1012E000282F2871283119F4877E816106C0282FA4
:1012F0002171213111F48E7E886194FD877E0895DD
:10130000E82FF0E0E85CFC4F80810895CF92DF92F7
:10131000EF92FF920F931F93CF93DF9382E993E0B5
:101320000E94B50588E3E82E83E0F82EC0E0D0E007
:101330009DE8C92E93E0D92E05E813E0DF93CF9303
:10134000DF92CF920E944E068AE893E00E94B50594
:10135000F70181917F010E9440071F928F931F9395
:101360000F930E944E0683E893E00E94B5052196F4
:101370008DB79EB708960FB6F8949EBF0FBE8DBF6F
:10138000CA30D105D9F6DF91CF911F910F91FF900F
:10139000EF90DF90CF90089580EA8A95F1F7089555
:1013A00000C008950C94CC0908950C94D4090C94B1
:1013B000D5090C94D4090C94D909F894E82FE29536
:1013C000EF70F0E031A1282F2F7081E090E001C094
:1013D000880F2A95EAF7982F9095932391A392A1CD
:1013E000892B82A378940895CF93DF93C5E6D1E04B
:1013F00089910E94DD0981E0CF36D807C9F7CDE594
:10140000D1E089910E94DD0981E0C536D807C9F78E
:10141000EEE2F3E0A8E3B3E088E393E011921D92DB
:101420008E179F07D9F78AE00E94A40ADF91CF9117
:101430000C94BC068F929F92AF92BF92CF92DF9294
:10144000EF92FF920F931F93CF93DF930EE213E07F
:1014500085E6E82E81E0F82EC0E0D0E0912CCC2487
:10146000C394D12C5701F7018081F894E82FE295BD
:10147000EF70F0E021A18F70A60102C0440F551F4C
:101480008A95E2F7CA01922F982B91A392A1809599
:10149000892382A378940E94D009EDE5F1E020E051
:1014A00030E0812C4191A42FA295AF70B0E09096CE
:1014B0008C9190E04F7002C0959587954A95E2F720
:1014C00080FD07C08C2D022E01C0880F0A94EAF718
:1014D00001C080E0882A2F5F3F4F2830310511F787
:1014E0005FEFE51AF50AF50180810E94DD09C93038
:1014F000D10511F00E94D209F8018081881619F0F7
:10150000808281E001C080E0982A21960F5F1F4F02
:10151000CA30D10509F0A6CF292D4AE068E373E06F
:101520008EE293E00E94A50A0E94C806892DDF91F1
:10153000CF911F910F91FF90EF90DF90CF90BF90D0
:10154000AF909F908F9008950895FF920F931F93EF
:10155000CF93DF938C01F62ED72FC42F222349F08F
:1015600081E08093DE010E9483289093DD018093C7
:10157000DC018091DE018823C1F08091DC01909133
:10158000DD010E949B28069780F0EF2DFD2FD801EA
:101590004C2F50E0CD01801B910B841795071CF454
:1015A0008D918193F7CF1092DE01DF91CF911F9142
:1015B0000F91FF9008958091E50180FF0BC060912D
:1015C000090185E0689FB0011124759567957595AF
:1015D00067952BC081FF09C06091090185E0689F74
:1015E000B00111247595679520C082FF07C06091F6
:1015F000090185E0689FB001112417C09091E401B2
:101600009923D1F060910801961788F7209109017C
:1016100085E0289F90011124929FA001939F500D77
:10162000112470E0CA010E9423346038710540F42F
:101630006115710519F406C065E070E0862F089504
:101640008FE7089581E008958091E50180FF08C04B
:101650006091050170E0759567957595679521C056
:1016600081FF06C06091050170E07595679519C00E
:1016700082FF04C06091050170E010C09091E30109
:10168000992399F0609104019617A0F780910501C4
:10169000899FC001112470E00E94233460387105D5
:1016A00040F46115710519F406C061E070E0862F01
:1016B00008958FE7089581E008958D3E21F40E94FA
:1016C000DB0A819504C08E3E29F40E94DB0A8093D8
:1016D000E90108958F3E21F40E94DB0A819504C040
:1016E000803F29F40E94DB0A8093E8010895893F36
:1016F00019F40E94240B05C08A3F31F40E94240B88
:1017000081958093EA0108958B3F21F40E94240B78
:10171000819504C08C3F29F40E94240B8093EB0137
:1017200008959FE0980F983078F421E030E0A90107
:1017300002C0440F551F9A95E2F7CA019091E70144
:10174000892B8093E70108958D3F21F48091E50175
:1017500081600BC08E3F21F48091E501826005C05D
:101760008F3F29F48091E50184608093E50108951D
:101770008D3E39F49091E90197FF35C01092E9014F
:1017800059C08E3E29F49091E9011916BCF32BC083
:101790009091E8018F3E29F497FF25C01092E8014F
:1017A00049C0803F19F41916CCF31DC09091EA018D
:1017B000893F29F41916BCF41092EA013BC08A3F14
:1017C00019F497FF10C0F8CF8B3F39F49091EB01DB
:1017D00097FF09C01092EB012DC08C3F21F490912E
:1017E000EB011916BCF39FE0980F983080F421E0CC
:1017F00030E0A90102C0440F551F9A95E2F7CA01D3
:1018000080959091E70189238093E70113C08D3F74
:1018100021F48091E5018E7F0BC08E3F21F48091F1
:10182000E5018D7F05C08F3F29F48091E5018B7F15
:101830008093E5018091E801811106C08091E90162
:10184000811102C01092E4018091EA01811106C069
:101850008091EB01811102C01092E3010895809103
:10186000070383FF7EC088EC93E00E94B50580915A
:10187000E7011F928F9383EC93E09F938F930E94D5
:101880004E0681EC93E00E94B5058091E801282F77
:10189000082E000C330B3F938F938EEB93E09F93B6
:1018A0008F930E944E068CEB93E00E94B5058091C9
:1018B000E901282F082E000C330B3F938F9389EBFF
:1018C00093E09F938F930E944E0687EB93E00E94D4
:1018D000B5058091EA01282F082E000C330B3F93A9
:1018E0008F9384EB93E09F938F930E944E0682EB3D
:1018F00093E00E94B5058091EB01282F082E000C83
:10190000330B3F938F938FEA93E09F938F930E94C3
:101910004E068CEA93E00E94B5058091E4011F9287
:101920008F9389EA93E09F938F930E944E0687EAF4
:1019300093E00E94B5058091E5011F928F9384EAA0
:1019400093E09F938F930E944E0681EA93E00E945A
:10195000B5058DB79EB74C960FB6F8949EBF0FBED7
:101960008DBF0E9483282091E801211104C020919D
:10197000E901222321F09093E2018093E10120917B
:10198000EA01211104C02091EB01222321F0909360
:10199000E0018093DF0186EE91E00C942B1BEF9227
:1019A000FF920F931F93CF93DF9300D000D000D00E
:1019B000CDB7DEB786E0E6EEF1E0DE0111960190EC
:1019C0000D928A95E1F7E090E801F090E90100912D
:1019D000EA011091EB011092E8011092E9011092D6
:1019E000EA011092EB01E11003C0FF2009F45DC091
:1019F0008091E1019091E2010E949B28AC019091BD
:101A0000E401992339F020910A0130E024173507C9
:101A100058F04BC020910B018AE0289F90011124BF
:101A20002417350718F041C09F3F19F09F5F90932E
:101A3000E401EE2061F00E94DB0A1E1414F09FEF17
:101A400001C091E0989F902D11249093E801FF2010
:101A500061F00E94DB0A1F1414F09FEF01C091E0B7
:101A6000989F902D11249093E9013091E801332340
:101A7000E1F02091E9012223C1F045EB3403C001DC
:101A80001124992319F09093E80103C081E0809319
:101A9000E80135EB2303C0011124992319F0909339
:101AA000E90103C081E08093E901011103C0112322
:101AB00009F45DC08091DF019091E0010E949B28B4
:101AC000AC019091E301992339F02091060130E0B7
:101AD0002417350758F04BC0209107018AE0289F52
:101AE000900111242417350718F041C09F3F19F0C9
:101AF0009F5F9093E301002361F00E94240B101676
:101B000014F09FEF01C091E0989F902D11249093C5
:101B1000EA01112361F00E94240B111614F09FEFCB
:101B200001C091E0989F902D11249093EB0130918A
:101B3000EA013323E1F02091EB012223C1F045EBD0
:101B40003403C0011124992319F09093EA0103C0D2
:101B500081E08093EA0135EB2303C001112499232E
:101B600019F09093EB0103C081E08093EB01809129
:101B7000E80181110BC08091E901811107C08091BA
:101B8000EA01811103C08091EB0181110E942F0CA9
:101B9000EB82FC820D831E8386E0FE013196A6EE69
:101BA000B1E001900D928A95E1F726960FB6F89470
:101BB000DEBF0FBECDBFDF91CF911F910F91FF9080
:101BC000EF900895E6EEF1E086E0DF011D928A9540
:101BD000E9F71092E4011092E3011092E5010895F3
:101BE000EF92FF920F931F93CF93DF938B01682F98
:101BF00011110AC0442329F0E82FF0E0EE59F84F04
:101C00006491762F862F75C0212F30E0E82FF0E009
:101C1000442321F0EE59F84FE491F0E046E0049FB0
:101C2000C0011124CFEFD0E0BE010E940F344BEA77
:101C30004603C001479F900D1124800F911D800F16
:101C4000911D982F990F890FAE01421B530B4E9F88
:101C5000D0014F9FB00D5E9FB00D11249B2F189F98
:101C6000A0011124452F55278E01041B150B0E9F33
:101C7000A0010F9F500D1E9F500D11247E01E81AE8
:101C8000F108E29E8001E39E100DF29E100D1124DA
:101C9000212F3327C21BD30BCE9F9001CF9F300D36
:101CA000DE9F300D112462307105A9F048F46115F2
:101CB000710569F061307105C9F48B2F752F0DC066
:101CC0006430710581F058F06630710579F47E2F2B
:101CD0008B2F932F0DC0832F7B2F9E2F09C08E2F0C
:101CE0007B2F952F05C08E2F732F02C07E2F852F3F
:101CF000692FDF91CF911F910F91FF90EF90089581
:101D000041E00E94F00D08950895682F70E080E092
:101D100090E00E94F63120E030E04FE753E40E946B
:101D200019312BED3FE049E450E40E941F330E943B
:101D30008C330E94933122EB3AE54CEB5EE30E9438
:101D4000AC3022E03FE24AEA52E40E941F330E9494
:101D5000C531862F08950E94800E0895CF93DF939A
:101D6000762FE901682F842F0E94AB0E7983688358
:101D70008A83DF91CF91089580914203282F269581
:101D800030E02115310519F48170826005C02B32D5
:101D9000310524F08170846580934203089588E0C2
:101DA00090E00C940135CF92DF92EF92FF926B019D
:101DB0007C010E94BC0EB701A60188E090E0FF9074
:101DC000EF90DF90CF900C941F35E2E4F3E083E0D6
:101DD000808311828FEF828383831482608171817B
:101DE000828193810C94D30E8091070380FF08C0F9
:101DF00080EB96E09F938F930E944E060F900F907A
:101E00008091070380FF0FC08091420381701F9271
:101E10008F9383E996E09F938F930E944E060F90D5
:101E20000F900F900F908091070380FF0FC080915B
:101E3000420386951F928F9388E796E09F938F9336
:101E40000E944E060F900F900F900F908091070305
:101E500080FF0EC0809143031F928F938EE596E022
:101E60009F938F930E944E060F900F900F900F90AC
:101E70008091070380FF0EC0809144031F928F93CF
:101E800084E496E09F938F930E944E060F900F90EC
:101E90000F900F908091070380FF0EC08091450343
:101EA0001F928F938AE296E09F938F930E944E0633
:101EB0000F900F900F900F908091070380FF0EC03E
:101EC000809146031F928F938EE096E09F938F93AD
:101ED0000E944E060F900F900F900F9008958091E2
:101EE000420380FF02C08695089580E00895909196
:101EF0004603933018F49F5F90934603882351F074
:101F00006091420370914303809144039091450393
:101F10000C94D30E089581E00C94770F90914603B2
:101F2000992319F0915090934603882351F06091C2
:101F300042037091430380914403909145030C94B4
:101F4000D30E089581E00C948E0F70E00C947918F4
:101F5000609110018091420380FF0AC080910F01BF
:101F600023E0829FC0011124895B9C4F0C94A50F34
:101F70008091110190911201891780F7E82FF0E00C
:101F80009F01220F331FE20FF31FE95BFC4F118209
:101F9000108212828F5FF0CF9091420390FF16C0A3
:101FA0009091110120911201921770F4E92FF0E045
:101FB000DF01AA0FBB1FEA0FFB1FE95BFC4F818308
:101FC000608342839F5FF0CF0C94A80F0895CF9356
:101FD000DF9300D01F92CDB7DEB79091420390FF00
:101FE0000AC09E012F5F3F4F0E94AE0E4B81698158
:101FF0008A810E94CC0F0F900F900F90DF91CF91AC
:102000000895CF93DF93EC018C810E94850EE2E46A
:10201000F3E0482F628181810E94E70F8C818F5FFE
:102020008C83DF91CF910895CF93DF93EC01E2E4AD
:10203000F3E0438162818C810E94E70F8C818F5F86
:102040008C83DF91CF9108950F931F93CF93DF93EC
:1020500000D01F92CDB7DEB78C018091EC018111C9
:102060000AC09E012F5F3F4F4FEF6FEF0E94AE0EF1
:102070008A818093EC01F8018481813051F028F04D
:10208000823061F44091EC010AC08091EC0140E0A3
:1020900007C06091EC0140E080E003C040E080E0D8
:1020A00060E00E94CC0FF801848190E0019663E02B
:1020B00070E00E94233484830F900F900F90DF9183
:1020C000CF911F910F9108954F925F926F927F92DF
:1020D0008F929F92AF92BF92CF92DF92EF92FF9238
:1020E0000F931F93CF93DF9300D01F92CDB7DEB72E
:1020F000F82EB62EE42E622E9091420390FFB4C0CB
:10210000E92FE695AE2FB0E0A159BE4F8C91809398
:1021100050029E7F923061F49E012F5F3F4F8F2DC2
:102120000E94AE0E4B8169818A810E94CC0F62C0F1
:10213000823019F4E09045035DC0863019F4F090C8
:10214000430358C08930D9F3893109F053C0E951AC
:102150008E2F8170782E81E0A72CA826E695F0E0DE
:10216000E252F94FC590D490412CDD2499E6892E96
:1021700094E0992E609113014616D0F5042D10E0DD
:102180000C9DC0010D9D900D1C9D900D112470E0C3
:102190000E940F345F2C711002C0560E01C0561AF7
:1021A0008091070380FF11C0DF92CF921F92AF9200
:1021B0001F925F921F924F929F928F920E944E06A3
:1021C0000FB6F894DEBF0FBECDBF80911101080F8E
:1021D000111D9801220F331F020F131F9801295B55
:1021E0003C4F4E2D6B2D852D0E94AE0E4394C2CFD9
:1021F0000E94A80FF0924303B0924403E09245037B
:102200006620E9F06091420370914303809144039A
:10221000909145030E94D30E8091070380FF24C054
:10222000809145031F928F93809144031F928F9357
:10223000809143031F928F9384E494E00CC08091BB
:10224000070380FF11C01F92EF921F92BF921F924F
:10225000FF928DE194E09F938F930E944E060FB6FC
:10226000F894DEBF0FBECDBF0F900F900F90DF919F
:10227000CF911F910F91FF90EF90DF90CF90BF9083
:10228000AF909F908F907F906F905F904F90089548
:10229000E2E4F3E09181282F4381628180E2890F9B
:1022A0000C94641081E00C944811E2E4F3E0918115
:1022B000282F4381628180EE890F0C94641081E0A5
:1022C0000C945511E2E4F3E0628121E1620F08F41D
:1022D0006FEF282F438181810C94641081E00C946E
:1022E0006211E2E4F3E0628121E1621B08F460E044
:1022F000282F438181810C94641081E00C9471112A
:10230000E2E4F3E0438121E1420F08F44FEF282F8C
:10231000628181810C94641081E00C948011E2E46C
:10232000F3E0438121E1421B08F440E0282F628161
:1023300081810C94641081E00C948F1120E00C9446
:102340006410FF920F931F93CF93DF93EC01F12C56
:102350000FEF10E060911301F616F0F48091110177
:102360002F2D30E0280F311DC901880F991F280F2C
:10237000391F295B3C4F70E0C8010E942334962F1F
:102380008C814091450360914403F99E800D112496
:102390000E94AE0EF394DECF0E94A80F9A818C812A
:1023A00090FF02C08F5F01C081508C83DF91CF917D
:1023B0001F910F91FF900895AF92BF92CF92DF923D
:1023C000EF92FF920F931F93CF93DF93FC018281D3
:1023D00080FF02C00FEF01C001E010E042E1A42E37
:1023E00080911301181708F043C080911101C12E8C
:1023F000D12CE601C80FD11DCE01880F991FC80F3F
:10240000D91FC95BDC4F198218821A8234E0E32E8F
:10241000F12CB12C8091EE018B0D83312CF06A2DC3
:102420000E940134892F05C087FF03C090911301DA
:10243000890F082E000C990BC816D90691F48091CB
:1024400045038E9DA0018F9D500D112455954795F4
:10245000559547959E0160914403809143030E94E6
:10246000AE0EB00EF1E0EF1AF108A1F61F5FB8CF83
:102470000E94A80F8091EE01013031F4811102C059
:1024800080911301815007C090E001966091130183
:1024900070E00E9423348093EE01DF91CF911F9171
:1024A0000F91FF90EF90DF90CF90BF90AF90089585
:1024B000CF93DF938091110190911201891770F4ED
:1024C000E82FF0E09F01220F331FE20FF31FE95BBB
:1024D000FC4F1182108212828F5FF0CFC0E0D0E0FB
:1024E0006091130170E0CE0102960E942334209186
:1024F0001101820F2091ED01022E000C330B90E0B0
:10250000C217D307CCF020910E01022E000C330B22
:102510002C173D078CF09C01220F331F820F931F55
:102520009C01295B3C4F409145036091440380919D
:1025300043030E94AE0E0BC0FC01EE0FFF1F8E0F77
:102540009F1FFC01E95BFC4F1182108212822196D1
:10255000C530D10529F60E94A80F80910D019091F8
:10256000ED01980F9093ED0120910E01280F20931B
:102570000E01121614F494301CF0819580930D0115
:10258000DF91CF9108958F929F92AF92BF92CF9299
:10259000DF92EF92FF920F931F93CF93DF938C0103
:1025A000FC014481C42FD0E09E01DE010E9467340B
:1025B0009B01AC010E947D346B017C01E0E2F0E004
:1025C000EC1BFD0BA5E5B0E09B01AC010E947D3446
:1025D0004B015C019F01DF010E945F349B01AC0154
:1025E0000E9488349B01AC012C0D3D1D4E1D5F1DCA
:1025F000C501B4010E943734C22FD22F2A3228F4E9
:10260000F3E02F9F900111240DC025E530E02C1B35
:102610003109C901880F991F280F391F37FF02C0E0
:102620002F5F3F4F35952795C22FC095F12C85E53B
:10263000E82EED1A80911301F816C8F4F0FC02C0E0
:102640008E2D01C08D2F909111012F2D30E0290F7B
:10265000311DA901440F551F240F351F295B3C4F25
:102660004C2F609144030E94AE0EF394E3CF0E947E
:10267000A80FF8018481811102C091E003C080326B
:1026800019F49FEF90930C0190910C01890FF801C0
:102690008483DF91CF911F910F91FF90EF90DF9096
:1026A000CF90BF90AF909F908F9008950F931F93FE
:1026B000CF93DF93EC0100E010E080911301282F0D
:1026C00030E00217130724F5909111019801290FAA
:1026D000311DA901440F551F240F351F295B3C4FA5
:1026E000869590E04C81081719071CF4442331F0BB
:1026F00002C0411103C04091450301C040E0609118
:102700004403809143030E94AE0E0F5F1F4FD5CF4D
:102710000E94A80F8C8190E00196817099278C838C
:10272000DF91CF911F910F9108957F928F929F9289
:10273000AF92BF92CF92DF92EF92FF920F931F93CF
:10274000CF93DF93FC019280748081E0848380E0EA
:102750000E94850E882E8FE70E94850EA12CF5E041
:10276000BF2ECC24CA94D12C8819E82EF12C80914C
:102770001301A81608F09FC00A2D10E022E02915C9
:1027800068F0B09EF001B19EF00D1124E151FE4FB2
:1027900080914303808380914403818371100AC038
:1027A000B09EF001B19EF00D1124E151FE4F138255
:1027B000128267C0B09EE001B19ED00D1124C151BC
:1027C000DE4F8B818823E1F081508B832FEF829F36
:1027D000C00111246C8170E00E940F34862F0E948A
:1027E000850E88192FEF829FC0011124B7010E9426
:1027F0000F3480914503689FB00111247A8341C052
:102800000E94DC34209145032695215830E0A9012F
:10281000440F551F322F2227240F351F232F332714
:102820008217930774F582E0891588F40E94DC34DE
:10283000B6010E94233488830E94DC342091440333
:102840002695622F70E00E942334280F2983B09EC2
:10285000F001B19EF00D1124E151FE4F12828091E2
:102860004503843120F0893C18F088EC01C084E1F4
:10287000B09EF001B19EF00D1124E151FE4F848312
:102880008383809111019801280F311DC901880FA0
:10289000991F280F391F295B3C4FB09EF001B19E54
:1028A000F00D1124E151FE4F4281618180810E942F
:1028B000AE0EA3945CCFDF91CF911F910F91FF904B
:1028C000EF90DF90CF90BF90AF909F908F907F90D0
:1028D0000C94A80F60914203669570E04BE050E0C5
:1028E00084E191E00E94EC34892B19F481E080931B
:1028F00051020E94832890934A028093490280915A
:10290000070380FF08C084E094E09F938F930E94A8
:102910004E060F900F900895109251028091070378
:1029200080FF08C08BEE93E09F938F930E944E062A
:102930000F900F9008959091420390FF54C09170B2
:10294000811102C0926006C08B3210F0946502C003
:10295000880F982B909342036623B1F06091420355
:102960007091430380914403909145030E94D30EDC
:102970008091070380FF1BC08091420386951F92C0
:102980008F9384E595E00BC08091070380FF0FC013
:102990008091420386951F928F9386E395E09F93E3
:1029A0008F930E944E060F900F900F900F906091A2
:1029B0004203669570E04BE050E084E191E00E94B4
:1029C000EC34892B19F00E948C1402C00E946A1406
:1029D00081E080934C0240914503609144038091D3
:1029E00043030C949E110895682F9091420396958D
:1029F00081E0890F8B3208F081E00C949B1481E018
:102A00000C94F414682F9091420396958FEF890FE0
:102A100009F48AE20C949B1481E00C94021561E0A5
:102A20000C949B14809142038160809342038091B7
:102A3000070380FF0DC01F9281E08F9388EC94E024
:102A40009F938F930E944E060F900F900F900F90C0
:102A50008091420386950C940F1560E00C949B14B2
:102A600080914F02811160C08091070380FF08C0F0
:102A700087EF95E09F938F930E944E060F900F90E3
:102A80008091070380FF08C081EE95E09F938F93AC
:102A90000E944E060F900F900E946026811110C078
:102AA0008091070380FF08C089EB95E09F938F9387
:102AB0000E944E060F900F900E9410270E94E50E74
:102AC0000E94CF0E609342037093430380934403AC
:102AD000909345036E7FC1F48091070380FF08C087
:102AE00080E795E09F938F930E944E060F900F9082
:102AF0000E94E50E0E94CF0E609342037093430341
:102B000080934403909345030E94BC0E0E94F40EF0
:102B1000109251028091420380FF03C086950E946B
:102B20002D1581E080934F020895809142038E7F9E
:102B30008093420360914203709143038091440368
:102B4000909145030E94D30E8091070380FF0FC030
:102B50008091420381701F928F9380E994E09F934C
:102B60008F930E944E060F900F900F900F900E942F
:102B70008C142FEF80E792E0215080409040E1F7E5
:102B800000C000000C94A80F8091070380FF10C0C4
:102B900080914203809581701F928F938FEF94E014
:102BA0009F938F930E944E060F900F900F900F905F
:102BB0008091420380FD0C9495150C9412150F938F
:102BC0001F93CF93DF9380915102882309F495C01E
:102BD00080915002E0914203E695E81BE0934B029E
:102BE000823049F4F0E0E652F94FE491CE2FD0E084
:102BF00001E010E159C0863049F4F0E0E952F94FA4
:102C0000E491CE2FD0E004E110E14EC0893051F4C0
:102C1000E695F0E0EC52F94FE491CE2FD0E001EAD6
:102C200011E142C08F3051F4E695F0E0EF52F94FD8
:102C3000E491CE2FD0E00CED11E136C0853149F49E
:102C4000F0E0E253F94FE491CE2FD0E008E512E135
:102C50002BC08831D9F0833239F4ECECF6E0C59121
:102C6000D49104E210E120C08432A9F08532C1F48D
:102C70008E2F63E00E94F533E92FF0E0E753F94F20
:102C8000E491CE2FD0E005E913E10EC0C4E3D5E016
:102C900003EC12E109C0C4EFD1E006E513E104C082
:102CA000C0EDD7E004E81EE080914C02882361F07B
:102CB00010924C020E94832890934A02809349020A
:102CC00010924E0210924D020E948328E091490218
:102CD000F0914A028E1B9F0B8F3F9F4770F4EC0FC1
:102CE000FD1FF0934A02E093490289E492E0F80163
:102CF000DF91CF911F910F910994DF91CF911F9197
:102D00000F910895882311F0FA0101C0FB01099485
:102D1000CF93DF93C82FD62F0E946F0F8C1740F0F0
:102D20000E946F0F8D1720F4DF91CF910C94FF1448
:102D30008C2FDF91CF910C940F150F931F93CF938E
:102D4000FB01C281CC2309F463C08C010E94AF2532
:102D50008272F801E35CFC45E431F10508F059C0EA
:102D6000EA5AFF4F0C9459340E94C41506C04CE037
:102D700055E16FEF74E10E948216C0E04AC04FEF48
:102D800054E16CE075E1F7CF4FE551E162E571E1A7
:102D9000F2CF42E551E16FE571E1EDCF4DE751E151
:102DA0006EE671E1E8CF4EE651E16DE771E1E3CF08
:102DB0004BE951E16CE871E1DECF4CE851E16BE9A0
:102DC00071E1D9CF42EA5FE06BE87FE0D4CF4BE816
:102DD0005FE062EA7FE0CFCF81E017C065E082E08C
:102DE00010C068E086E00DC06EE089E00AC064E1D2
:102DF0008FE007C067E185E104C088E106C062E2B8
:102E000089E10E948816B9CF83E20E940F15B5CFE1
:102E1000C1E08C2FCF911F910F9108950E946026E1
:102E2000811102C00E9410270E94912680937D0389
:102E3000282F26952695269530E02230310524F05E
:102E40008770886080937D0380917D0380FF04C03C
:102E500086958695869501C080E00C9462068091E7
:102E60007D03982F96959695969521F487708860A6
:102E700080937D0380917D03816080937D030E9418
:102E800095268091070380FF11C080917D03869570
:102E9000869586951F928F938AE497E09F938F93F0
:102EA0000E944E060F900F900F900F9080917D031F
:102EB0008695869586950C94620680917D03982F61
:102EC000969596959695A1F0915E990F990F990F09
:102ED0008770892B80937D03887F91E009F490E0CF
:102EE00080917D0390FB80F980937D030E9495265D
:102EF0008091070380FF11C080917D0386958695A0
:102F000086951F928F9382E397E09F938F930E9401
:102F10004E060F900F900F900F9080917D03869535
:102F2000869586950C94620680917D0380FD1FC076
:102F3000816080937D03813019F489E080937D0363
:102F400080917D030E9495268091070380FF08C031
:102F50008AE097E09F938F930E944E060F900F9008
:102F600080917D038695869586950C9462060895DA
:102F700080917D0380FF14C08E7F80937D030E942B
:102F800095268091070380FF08C087EF96E09F9306
:102F90008F930E944E060F900F9080E00C94620673
:102FA0000895CF93C0917D03C1708091070380FF86
:102FB0000CC01F92CF938CE197E09F938F930E9458
:102FC0004E060F900F900F900F90CC2319F0CF91D9
:102FD0000C94B817CF910C94941790917D03892F7E
:102FE0008695869586958F5F8F719770823038F4BD
:102FF000880F880F880F892B80937D0302C09093E0
:103000007D0380917D03887F91E009F490E08091B9
:103010007D0390FB80F980937D030E94952680912B
:10302000070380FF11C080917D0386958695869564
:103030001F928F9383EE96E09F938F930E944E068C
:103040000F900F900F900F9080917D03869586953D
:1030500086950C946206811181E090917D039770B2
:10306000282F220F220F220F922B90937D03987FFF
:1030700021E009F420E090917D0320FB90F99093EA
:103080007D030C9462060E942B1880917D030C94A2
:1030900095269C01FB018281882349F12E3BFCE5AA
:1030A0003F07C9F040F42C3BECE53E0769F02D3BAF
:1030B0003C4561F00895203C9CE5390791F070F0A3
:1030C000213C3C4589F0089581E001C080E00E94E8
:1030D000431880E008950E945D17FBCF0E942F17D0
:1030E000F8CF0E94D117F5CF0E94ED17F2CF81E003
:1030F0000895579A2BB12F773BB130684FB7F894AA
:10310000FC01CB01880F991F680F791F6E0F7F1F7D
:10311000E617F70789F0819198E03BB9000000C0FD
:1031200087FF2BB9880F000000C000C000C02BB97A
:1031300000C09A9591F7ECCF4FBF8FE594E00197CF
:10314000F1F700C0000008950F931F93CF93DF9312
:10315000C42FD22FFC0182818823C9F040935402EE
:103160000E948328909353028093520280E28C0F36
:10317000883008F057C0C77081E001C0880FCA9539
:10318000EAF7DF91CF911F910F910C94561D80911A
:103190005402481330C080915202909153020E9411
:1031A0009B28883C910538F510E21D0FCD17B9F02A
:1031B00080E28C0F883040F4C77081E001C0880F36
:1031C000CA95EAF70E945D1D183028F581E09D2F11
:1031D000977001C0880F9A95EAF70E94561D802FBC
:1031E0000E944D1D1830F0F4D77081E001C0880FA7
:1031F000DA95EAF70AC080E28C0F883098F4C7703D
:1032000081E001C0880FCA95EAF7DF91CF911F9145
:103210000F910C945D1D802FDF91CF911F910F9125
:103220000C944D1DDF91CF911F910F9108950F9335
:103230009C01CB01243F4CE5340731F188F4293D52
:10324000FCE53F07D9F02A3D4CE5340779F1283DEC
:103250003C45A9F506E221EE41EE68ED7CE52BC088
:10326000263FFCE53F07E1F0A8F0273F3C4539F554
:1032700007E225EE46EE67EF7CE51DC007E225EE8E
:1032800045EE69ED7CE517C006E221EE40EE64EF05
:103290007CE511C007E225EE44EE65EF7CE50BC04E
:1032A00006E221EE42EE66EF7CE505C008E221E091
:1032B00045EE6AED7CE50E94A41880E008C0FC01A0
:1032C0008281882319F01092540201C081E00F918D
:1032D0000895CF93DF93EC01FB018281882309F4E9
:1032E0001FC1C230FCE5DF0708F41BC1C6319CE5F5
:1032F000D90738F09E012B5F3C452930310508F095
:1033000010C10E9473269093830380938203C0317F
:10331000ECE5DE0709F4C3C008F041C0C8308CE515
:10332000D80709F49AC0F0F4C430ECE5DE0709F4DC
:1033300087C068F4C2308CE5D80709F477C0C33081
:10334000DC4509F0E3C080918203826076C0C6301C
:10335000ECE5DE0709F46EC008F07BC080918203C3
:1033600088606BC0CC308CE5D80709F485C068F460
:10337000CA30ECE5DE0709F474C008F079C00E9499
:10338000E31F80918203806858C0CE308CE5D80757
:1033900009F476C008F07FC0809182038BC0CC3FD7
:1033A000ECE5DE0709F44FC018F5C3318CE5D8070A
:1033B00009F47DC078F4C131ECE5DE0709F473C08F
:1033C000C231DC4509F0A2C00E94E31F8091820354
:1033D0008F7733C0C5318CE5D80709F472C008F483
:1033E00086C0CB3FDC4509F091C0809183033EC08D
:1033F000C115FDE5DF0709F45FC058F4CE3F9CE539
:10340000D90709F444C008F43FC080918303826067
:103410002DC0C230FDE5DF0709F475C008F45DC0BA
:10342000C330DD4509F072C080E06EC08091820338
:10343000816003C08091820380618093820366C0B3
:103440008091820311C08091830382608093830303
:103450005DC0809182038062F0CF8091820380649E
:10346000ECCF8091820388608460E7CF8160EECFEB
:10347000809182038E7FE1CF809182038D7FDDCFAB
:1034800080918203877FD9CF8091830318C0809178
:1034900083038D7FDBCF809182038F7ECECF80919F
:1034A00082038F7DCACF809182038F7BC6CF8091AC
:1034B0008203877F8B7FC1CF809183038D7F8E7F37
:1034C000C5CF8091820382FB222720F991E09227C9
:1034D00090FB82F990FB83F9B0CF80918303982F02
:1034E000909591708E7F892B90FB81F9AFCF0E94D0
:1034F000E31F8091820387FB222720F991E0922726
:1035000090FB87F99ACF81E00E9412278091820375
:10351000909183030E9484260E94E31F80E001C0F3
:1035200081E0DF91CF910895CF93DF9386319C4561
:1035300041F5EB010E94AF25982F8A8120911F0150
:1035400030912001882379F09A7A81E009F480E0B3
:1035500080935502911102C069E201C065E3C9017F
:103560000E94CF270AC080915502811102C069E2F2
:1035700001C065E3C9010E94DA270E94FD2580E0B1
:1035800001C081E0DF91CF91089590935B02809319
:103590005A020895E0915A02F0915B02309721F0AF
:1035A0000190F081E02D099480E00895EF92FF9260
:1035B0001F93CF93DF93FC01A0915A02B0915B025D
:1035C000109709F442C080912B01882341F080912B
:1035D000820387FF04C08081818385E08083EF01BF
:1035E0001296ED91FC911397CE01099580910703F6
:1035F00082FF2BC080FF04C08AE698E00E94B505D8
:1036000018E084E6E82E88E0F82E8091070380FF1A
:103610000BC088811F928F93FF92EF920E944E06FB
:103620000F900F900F900F90115021961111EDCF28
:103630008091070380FF09C082E698E0DF91CF9177
:103640001F91FF90EF900C94B505DF91CF911F91E2
:10365000FF90EF900895E0915A02F0915B0230974D
:1036600039F022E0DC012C930480F581E02D0994EF
:10367000089520915802309159022817390771F0A6
:103680009093590280935802E0915A02F0915B02A4
:10369000309721F00680F781E02D0994089520915C
:1036A0005602309157022817390771F0909357024C
:1036B00080935602E0915A02F0915B02309721F01C
:1036C0000084F185E02D099408950E948F2860936D
:1036D0006B0270936C0280936D0290936E02609304
:1036E0006702709368028093690290936A0208955A
:1036F00085B7806885BF85B7806885BF089581E0FC
:1037000008950C947F1B08950C94831B0C94831BC9
:103710000C94861B0C94831B0C948A1B0C94831BA7
:103720000E94781B8BEE9AE20E94F4280E948E1B66
:103730000C948C1B0E947A280E94F4090E94F9289C
:103740000E940E170E9430150C94881BCF93C82F2F
:103750008091070382FF1EC080FF04C083E898E0C9
:103760000E94B5058091070380FF0CC01F92CF9384
:103770008EE798E09F938F930E944E060F900F90D4
:103780000F900F908091070380FF04C08CE798E0B2
:103790000E94B5058C2FCF910C9467079F92AF9232
:1037A000BF92CF92DF92EF92FF920F931F93CF932E
:1037B000DF93CDB7DEB72A970FB6F894DEBF0FBE02
:1037C000CDBF0E94841B0E94831B0E941A0A811194
:1037D0000E94651B8DE5A82E82E0B82E00E010E067
:1037E000902E802F0E948009D82EF501C1905F0194
:1037F000C826B1F40F5F1F4F0A30110589F78FEF0C
:1038000089838A831B820E9483288160782F9D830D
:103810008C8349815A816B818D810E94721C2FC0DB
:103820008091070381FD0E948609E12CFF24F39417
:103830008C2D8F21F1F00E94811B882399F0EE825C
:103840009F82DF2081E009F480E088870E9483283E
:103850008160782F9A8789874E815F8168858A8504
:103860000E94721CF801E35AFD4F8081F826F08215
:1038700006C0E394FF0CF8E0EF12DACFBBCF0E9452
:10388000DF150E94CF0C0E94CA1A90915C02891722
:10389000B9F00E94CA1A80935C022A960FB6F89477
:1038A000DEBF0FBECDBFDF91CF911F910F91FF9073
:1038B000EF90DF90CF90BF90AF909F900C94A61B9D
:1038C0002A960FB6F894DEBF0FBECDBFDF91CF9121
:1038D0001F910F91FF90EF90DF90CF90BF90AF902E
:1038E0009F900895DF92EF92FF920F931F93CF93D3
:1038F000DF93CDB7DEB72B970FB6F894DEBF0FBEC0
:10390000CDBFF42E052F162FE72ED82E61110E9461
:10391000CF25FE01319686E0DF011D928A95E9F7F9
:103920007E2D4F2D502F612F8D2D9E810E949C2228
:103930002B960FB6F894DEBF0FBECDBFDF91CF91AF
:103940001F910F91FF90EF90DF900895FC0180810F
:1039500091810E9470250895CF93882309F450C067
:10396000C82F8CEF8C0F813AD0F46C2F80911F01FF
:10397000909120010E942D27882349F06C2F80917F
:103980001F01909120010E94DA270E94FD256C2FD3
:1039900080911F01909120010E94CF270CC080E2EE
:1039A0008C0F883058F4C77081E001C0880FCA9529
:1039B000EAF70E94B225CF910C94FD25EBE5EC0FC0
:1039C000E33040F4F0E0E853FE4F808190E0CF9187
:1039D0000C94391BE8E5EC0FE73150F4F0E0EE0F02
:1039E000FF1FE656FE4F80819181CF910C944F1BB3
:1039F000CD3E30F08C2F0E945D0BCF910C942F0C9C
:103A0000CF910895882389F19CEF980F913A40F463
:103A1000682F80911F01909120010E94DA270DC02C
:103A200090E2980F983058F4877091E001C0990F98
:103A30008A95EAF7892F0E94B8250C94FD259BE50D
:103A4000980F933020F480E090E00C94391B98E5B7
:103A5000980F973120F480E090E00C944F1B8D3E3E
:103A600020F00E94B80B0C942F0C08951F93CF9355
:103A7000DF93182FEB010E94AC1C209741F08FE9D7
:103A80009FE00197F1F700C000002197F6CF812F4A
:103A9000DF91CF911F910C94021D893319F060E0E2
:103AA00070E002C060E570E00C94361D882321F0C0
:103AB0000E94B2250C94FD250895882321F00E94D0
:103AC000B8250C94FD250895CF92DF92EF92FF92D6
:103AD0000F931F93CF93DF937C01062FC72FFC0119
:103AE000D281158112951F700E94A825882399F014
:103AF000DD2389F08C2F807F803421F080E2800FDD
:103B0000883048F082E00E9447260E94A82591E074
:103B1000D82ED92601C0D12CCC2EC2948FE0C82239
:103B20008C2D90E0FC01E659FF4F0C9459348C2FFA
:103B3000807FCF70882311F0C295C07FDD2399F07C
:103B4000CC2309F48DC180E2800F883010F0011180
:103B500004C08C2F0E94B22503C08C2F0E94C22566
:103B60000E94FD257DC1802F0E94021DCC2309F4F7
:103B70009CC180E2800F883010F0011104C08C2FAE
:103B80000E94B82503C08C2F0E94C8250E94FD25E5
:103B90008CC18C2F807FCF70803211F0C295C07F96
:103BA000002319F00130C9F022C0DD2371F0112388
:103BB00041F0113031F40E94E2258C2B0E94EA255D
:103BC00074C10E94E2258C2B1DC0112319F0113005
:103BD00009F46BC10E94F32525C0DD2321F01630C6
:103BE00008F063C10EC0153008F05FC11BC0DD23B3
:103BF00061F0112331F0F701858180FF31C18F70B1
:103C000085838C2F0E94561D50C1112359F0093312
:103C100009F037C1FFEF27EE83E0F15020408040EC
:103C2000E1F72DC18C2F0E945D1D3FC18C2F869521
:103C30008695837019F0813061F037C1DD2321F062
:103C4000802F9C2F937002C080E090E00E94391B6F
:103C500034C1DD2321F0802F9C2F937002C080E0BF
:103C600090E00E944F1B29C1802FDD2319F00E9494
:103C70005D0B02C00E94B80B0E942F0C1EC18C2F3E
:103C8000837009F045C0D11114C1402F429546956B
:103C90004770440F440F602F6F70862F90E0A0E0B4
:103CA000B0E0042E04C0880F991FAA1FBB1F0A94FE
:103CB000D2F704FF10C00FE010E020E030E004C0B5
:103CC000000F111F221F331F4A95D2F70095109540
:103CD0002095309503C000E010E09801C695C69588
:103CE000C370BC01CD01602B712B822B932BC23092
:103CF00049F058F4C13019F00E94ED23DAC00E9457
:103D0000DB23D7C00E94FF23D4C00E94D923D1C097
:103D1000DD2319F08C2F817001C08695882309F46A
:103D2000C8C0402F429546954770440F440F602FFE
:103D30006F70862F90E0A0E0B0E0042E04C0880FE2
:103D4000991FAA1FBB1F0A94D2F704FF10C00FE0EF
:103D500010E020E030E004C0000F111F221F331FCD
:103D60004A95D2F7009510952095309503C000E054
:103D700010E09801C695C695C370BC01CD01602BBB
:103D8000712B822B932BC23049F058F4C13019F0BB
:103D90000E94B2248EC00E94A0248BC00E94C42422
:103DA00088C00E94132485C0CF70DD2339F08C2F8A
:103DB0000E943924802F0E94561D7BC0802F0E94B4
:103DC0005D1D8C2F0E945A2474C0023F01F128F41B
:103DD000003F41F0013FA1F03FC0033FF9F0043F35
:103DE00039F13AC0DD2341F0153008F05EC08C2F68
:103DF0008F710E947F2459C0163008F056C0F7CF4B
:103E0000DD2339F08C2F8F710E9439244EC0DD23C1
:103E1000C9F38C2F8F710E945A2447C0DD2329F0EB
:103E20008C2F8F710E94242440C00E941F243DC00B
:103E3000DD2349F0CF718C2F0E94392463E08C2F51
:103E40000E94322632C081E00E944726123068F17B
:103E500082E00E94472629C0DD2331F0112391F230
:103E6000802F0E94AC1C21C0112399F2093349F420
:103E70009FEFE7EEF3E09150E040F040E1F700C043
:103E80000000802F0E94021D10C04C2F4F70602F29
:103E9000C7010E9470070E944A230FC04C2F4F7029
:103EA000602FC7010E94730708C088EF8C0D843013
:103EB00020F40E94CA1A0E946707DD20C9F00E9400
:103EC000A42580FD15C0F70112820E949E250E9444
:103ED0003924C7010E94991F0E949E25DF91CF912E
:103EE0001F910F91FF90EF90DF90CF900C945A2488
:103EF000DF91CF911F910F91FF90EF90DF90CF90C6
:103F000008950F931F93CF93DF93EC01688179811C
:103F10008A810E947B258C010E94D6240E94C7239F
:103F2000B801CE010E94641DDF91CF911F910F91C6
:103F30000895CF93DF93EC01988189812B813C8197
:103F4000232B31F08F3F31F481E09F3F19F403C000
:103F500081E001C080E080FD19C0CE010E94DA0638
:103F600081110CC00E94A825882381F08A818823B2
:103F700069F082E0DF91CF910C944726CE010E9438
:103F8000811FCE01DF91CF910C94B106DF91CF91CB
:103F9000089580E090E00E94391B80E090E00E944C
:103FA0004F1B0E94CF250E94DF250E94FD250E9405
:103FB000E20D0C942F0C80911F01909120010E9422
:103FC000E5270C94C91F0E94BF250C94DB1FE92F25
:103FD000E295EF704E2F50E0FA013297EE30F10586
:103FE000B0F4E658FF4F0C945934803F91F018F428
:103FF000883E68F40EC0843F51F40BC0883E48F000
:10400000813F29F406C093FB882780F9089580E05A
:10401000089581E008950E9470250E94E71F089589
:10402000CF93DF9300D000D01F92CDB7DEB70F90B3
:104030000F900F900F900F90DF91CF910895CF9335
:10404000DF9300D000D000D0CDB7DEB726960FB6F4
:10405000F894DEBF0FBECDBFDF91CF9108951F93BF
:10406000CF93DF93C091700216E080917102C81760
:1040700099F0D0E01C9FF0011D9FF00D1124EE5827
:10408000FD4F4081518162817381848195810E94BD
:104090001F202196C770E9CFDF91CF911F9108951E
:1040A0004091A2025091A3026091A4027091A502D6
:1040B0008091A6029091A7020C941F200F931F934A
:1040C000CF93DF938091A70282958F7009F05DC036
:1040D0008091A402882309F458C080917002109145
:1040E00071026091A2027091A302C091A502D091C9
:1040F000A60291E06F3F09F090E0292F06E08117BA
:1041000009F443C0209721F07F3F21F030E003C045
:1041100031E001C0322F90E030FD34C0089FF00143
:10412000099FF00D1124DF01AE58BD4F11963C914F
:104130001197371327C03C91361324C012963C9137
:10414000129731111FC013964D915C9114974C1B1F
:104150005D0B483C5105B0F48091A7028F708061DF
:104160008093A702E958FD4F80818F708061808322
:1041700082EA92E00E94991FDF91CF911F910F91E7
:104180000C942F2001968770BACFDF91CF911F91A9
:104190000F9108959F92AF92BF92CF92DF92EF92CC
:1041A000FF920F931F93CF93DF93CDB7DEB7619745
:1041B0000FB6F894DEBF0FBECDBF8C0185E0F801CD
:1041C000DE011D9601900D928A95E1F7F80140817C
:1041D0005181E2809091A2026091A3022091A502F8
:1041E0003091A6022115310531F06F3F31F481E0A5
:1041F0009F3F19F403C081E001C080E0F82FF17007
:104200009F2E80FD46C1F801A380B48082EAC82EAB
:1042100082E0D82EF090A402F501E21BF30BFF2000
:1042200009F4DFC08091A702E83CF10508F09BC0CB
:10423000282F207F09F052C0561313C0491311C014
:10424000FE2CE1100EC08F7080618093A7020E9447
:104250005020C6010E94991F8091A702F801858312
:1042600058C1AB2831F05F3F31F481E04F3F19F482
:1042700003C081E001C080E080FD03C081E08E25A5
:1042800002C080E090E0F82FF170FF2E80FF1CC08C
:10429000809170022091710236E0821709F417C1F3
:1042A00090E0389FF001399FF00D1124EE58FD4F3A
:1042B0006181561306C06081461303C06281E61215
:1042C00003C001968770E9CFFE2CEE2009F421C1CE
:1042D0008091A70281608093A7025AC0561306C03E
:1042E000491304C0E11002C0F8019FC04D875E87EA
:1042F0008D859E850E940B20882379F1EE2069F13F
:104300002091A702822F82958F7090E0029774F01F
:104310008091A2029091A30298878F831986BB8611
:10432000AA862C87CE0107960E94991F86E0F80185
:10433000A2EAB2E001900D928A95E1F70E945E2018
:104340000E9450200DC0561729F14D875E878D853C
:104350009E850E940B2081112CC0C8010E94991FCC
:10436000FF24F394D6C0282F207F69F77A2DB98ACD
:10437000A88A6E2D89890E94102082EA92E00E940C
:10438000991F86E0F60111928A95E9F70E94502064
:10439000F12CBFC04913D9CFE110D7CFF8018583E5
:1043A000C8010E94991F86E0F60111928A95E9F7EB
:1043B000B0C0EE2091F22091A702822F82958F70DB
:1043C00090E002970CF4B2CF8091A2029091A302E8
:1043D0009A8389831B82BD82AC822E83CE01019693
:1043E000A3CFE83CF10508F047C0FE2CEE2009F40D
:1043F000B4CF561330C049132EC02091A70220FD20
:1044000021C0822F82958F70482F50E041155105B1
:10441000C9F0F80125834F30510541F08F5F982F87
:104420009295907F822F8F70892B8583C8010E947F
:10443000991F86E0F801A2EAB2E001900D928A95F8
:10444000E1F742C086E0F801A2EAB2E001900D92E5
:104450008A95E1F75EC04D875E878D859E850E94B7
:104460000B20811163CF8091A70281608093A70206
:10447000C8010E94991F4DC07A2DB98AA88A6E2D55
:1044800089890E94102086E0F60111928A95E9F749
:104490001BC0EE2009F461CF4D875E878D859E8518
:1044A0000E940B20F82E882309F457CF86E0F801EC
:1044B000A2EAB2E001900D928A95E1F782EA92E0D9
:1044C0000E94A61C0E945E200E94502022C04D87A0
:1044D0005E878D859E850E947025292F22952F70DD
:1044E000223028F49F7039F0811105C00BC02430B0
:1044F00028F49F7049F4805E883020F0C8010E9443
:10450000991F9F2CF92C05C0F8019581907F99F790
:10451000F9CF8F2D61960FB6F894DEBF0FBECDBFD9
:10452000DF91CF911F910F91FF90EF90DF90CF908F
:10453000BF90AF909F9008951F93CF93DF93CDB717
:10454000DEB72C970FB6F894DEBF0FBECDBF4F83FA
:10455000588769877A878B879C87CE0107960E9448
:10456000CA208823D1F09F8188852A853B85232B0B
:1045700031F08F3F31F481E09F3F19F403C081E0B7
:1045800001C080E080FD47C04F81588569857A85EC
:104590008B859C850E941F203EC086E0FE013796D9
:1045A000DE01119601900D928A95E1F7FF81E88571
:1045B0006A857B856115710531F0EF3F31F481E04B
:1045C000FF3F19F403C081E001C080E080FD23C0FB
:1045D0002091710230E0C9010196877099274091BE
:1045E000700250E084179507F1F1F983EA837D8327
:1045F0006C8396E0929FD001939FB00D1124AE582A
:10460000BD4FFE01319601900D929A95E1F780938E
:1046100071020E942F2016E0809170029091710229
:10462000891771F1189FC00111248E589D4F0E9467
:10463000CA20882329F1E09170021E9FF001112405
:10464000EE58FD4F40815181628173818481958153
:104650000E941F208091700290E001968770992738
:1046600080937002D9CF0E94E31F109271021092C2
:104670007002E2EAF2E086E0DF011D928A95E9F736
:104680002C960FB6F894DEBF0FBECDBFDF91CF9151
:104690001F910895EF92FF920F931F93CF93DF9393
:1046A0008C01892B09F46CC0F12CEE24E394E80111
:1046B0002196F8018491843740F4843008F051C089
:1046C000813081F0823019F15BC0853709F444C034
:1046D000A8F19CE7980F903708F052C08F770E949E
:1046E000021D41C00E5F1F4FFE01849190E2980FA2
:1046F000983050F48770FE2D01C0FF0F8A95EAF7BD
:104700008F2F0E94D22514C00E94AC1C2DC00E5FBA
:104710001F4FFE01849190E2980F983060F48770EB
:10472000FE2D01C0FF0F8A95EAF78F2F0E94D82532
:104730000E94FD2519C00E94021D16C00E5F1F4F6A
:10474000FE01C491CC2381F08FE99FE00197F1F73E
:1047500000C00000C150F6CF0E5F1F4FFE01F49065
:1047600003C00E94AC1C8E018F2D882309F49FCFBB
:10477000EFE9FFE03197F1F700C000008150F5CF7D
:10478000DF91CF911F910F91FF90EF9008950895C1
:1047900008950C94C8230C94C9230E94CB236093E2
:1047A000DE027093DF028093E0029093E1020C94AA
:1047B000C91F0C94CD230F931F930091DE0210911B
:1047C000DF022091E0023091E102602B712B822BFD
:1047D000932B1F910F910C94CD230F931F93009156
:1047E000DE021091DF022091E0023091E1026023AD
:1047F0007123822393231F910F910C94CD230F9348
:104800001F930091DE021091DF022091E0023091AF
:10481000E10260277127822793271F910F910C9443
:10482000CD230C94C8230E9411246093DA02709364
:10483000DB028093DC029093DD020C94C91F60E0E0
:1048400070E0CB010C9413240F931F9341E050E0D0
:1048500060E070E08A019B0104C0000F111F221F5D
:10486000331F8A95D2F7C901B8011F910F910C949B
:1048700013240F931F9341E050E060E070E004C008
:10488000440F551F661F771F8A95D2F78091DA0271
:104890009091DB02A091DC02B091DD028A019B01C4
:1048A000082B192B2A2B3B2BC901B8011F910F9103
:1048B0000C9413240F931F9341E050E060E070E0EC
:1048C00004C0440F551F661F771F8A95D2F7409585
:1048D0005095609570958091DA029091DB02A091DD
:1048E000DC02B091DD028A019B01082319232A23EF
:1048F0003B23C901B8011F910F910C9413240F930E
:104900001F9341E050E060E070E004C0440F551F89
:10491000661F771F8A95D2F78091DA029091DB02A9
:10492000A091DC02B091DD028A019B0108271927C2
:104930002A273B27C901B8011F910F910C9413241A
:104940000F931F930091DA021091DB022091DC0299
:104950003091DD02602B712B822B932B1F910F91D5
:104960000C9413240F931F930091DA021091DB0231
:104970002091DC023091DD02602371238223932396
:104980001F910F910C9413240F931F930091DA023F
:104990001091DB022091DC023091DD02602771274B
:1049A000822793271F910F910C941324089528E0D8
:1049B000929F800D1124E82FE695E695E695877085
:1049C00051E001C0550F8A95EAF785E0E89FF001B4
:1049D0001124E855FD4F20E030E070E04081CB012C
:1049E000022E02C0969587950A94E2F78170819510
:1049F00084278523842781932F5F3F4F25303105FE
:104A000069F7089528E0929F800D1124682F66951C
:104A100066956695982F977085E0689FB001112480
:104A200040E050E080E0FB01E40FF51FE855FD4F4A
:104A3000208130E0092E02C0369527950A94E2F7CE
:104A400021703327042E01C0220F0A94EAF7822B2B
:104A50004F5F5F4F4530510531F70895BF92CF92B8
:104A6000DF92EF92FF920F931F93CF93DF938C010E
:104A7000C090DA02D090DB02E090DC02F090DD0220
:104A80008091DE029091DF02A091E002B091E102FC
:104A9000C82AD92AEA2AFB2ACFE1D0E0D701C601E9
:104AA0000C2E04C0B695A795979587950A94D2F7D2
:104AB00080FD04C0219790F7B12C07C0BC2EB8012F
:104AC0008C2F0E9491070197A9F38B2DDF91CF9135
:104AD0001F910F91FF90EF90DF90CF90BF900895BE
:104AE000CF93DF93EC010E942E25BE010E94910717
:104AF000DF91CF9108951F93CF93DF93EB019091B6
:104B00006F02992321F0CB010E94702513C08823E6
:104B100049F0CB010E942E25182F682FCE010E944C
:104B2000D72404C0CB010E940225182FBE01812F7B
:104B30000E949107DF91CF911F9108958091E20229
:104B400085958595859508958091E20287700895F1
:104B50009091E202977081E009F480E008958091DD
:104B60000603089590910603892B80930603089508
:104B700080959091060389238093060308951092EF
:104B80000603089590910503892B809305030895EA
:104B900080959091050389238093050308951092D1
:104BA0000503089590910403892B809304030895CD
:104BB00080959091040389238093040308951092B3
:104BC000040308958091E302089508950C94E52567
:104BD0000C94E6259091E302981721F08093E3026C
:104BE0000C94E82508958091E302882329F010921F
:104BF000E30280E00C94E8250895E0911F01F09114
:104C00002001809106038083E0911F01F091200133
:104C1000908180910503892B8083E0911F01F091A1
:104C20002001908180910403892B80838091E3028D
:104C3000882381F0E0911F01F09120019081892B60
:104C4000808380911F01909120010E94172781117C
:104C50000E94F32580911F01909120010C94D61A97
:104C60000C94E52598E0899F90011124262B209330
:104C7000E2020E9439248091E2028595859585950E
:104C80000C9430261092E20280E00C9430262091A1
:104C9000E202809582238093E202982F977079F444
:104CA00030E0482F082E000C550B2417350739F03B
:104CB0008595859585950E945A240C9442260895E1
:104CC00080E090E00E94073521E08B3E9E4F09F086
:104CD00020E0822F089582E090E00C94F93483E084
:104CE00090E00C94F934CF9384E090E00E94F93482
:104CF000C82F81E290E00E94F9342C2F30E0A90106
:104D0000582BCA01CF910895CF93C92F682F84E003
:104D100090E00E940D356C2F81E290E0CF910C94D1
:104D20000D3586E090E00C94F934682F86E090E031
:104D30000C940D35AB01BC018FE090E00C941F3555
:104D4000AB01BC0183E190E00C941F3560E070E0A2
:104D5000CB010C94A02660E070E0CB010E949A2663
:104D60000C94A6266BEE7EEF80E090E00E942B353F
:104D700060E082E090E00E940D3560E083E090E02A
:104D80000E940D351092DE021092DF021092E002B6
:104D90001092E10260E084E090E00E940D3560E056
:104DA00081E290E00E940D3560E085E090E00E9495
:104DB0000D3560E086E090E00E940D356FEF87E0F2
:104DC00090E00E940D3540E050E0BA0188E090E0AC
:104DD0000E941F3560E08DE090E00E940D3540E0BC
:104DE00050E0BA0188E190E00E941F3560E087E161
:104DF00090E00E940D3540E050E0BA018CE190E077
:104E00000E941F3560E080E290E00E940D3540E096
:104E100050E0BA0188E190E00E941F350C94AB2667
:104E20000C94B226682F8EE090E00C940D35FC01B6
:104E3000329680912B01882331F08091820387FF85
:104E400002C09EE101C096E080E0915028F02191DF
:104E50002223D9F38F5FF9CF0895662351F1209172
:104E60002B012223E9F02091820327FF19C0462F4E
:104E70004695469546954E31E0F4677021E030E066
:104E800002C0220F331F6A95E2F7FC01E40FF11D07
:104E9000828190E02823392381E0232B69F409C023
:104EA000FC01329608962191621729F0E817F9075C
:104EB000D1F780E0089581E008959C01FC013296CD
:104EC0009FEF80E04191461789F09F3F19F441110F
:104ED00001C0982F8F5F8630A9F79F3F39F0F90105
:104EE000E90FF11D97FDFA956283089508959C01DD
:104EF0002A5F3F4FFC014281461301C01282019696
:104F000082179307B9F70895262F2695269526959B
:104F10002E3170F4FC01E20FF11D677021E030E0EA
:104F200001C0220F6A95EAF78281282B2283089517
:104F30008091070380FF0CC01F926F9384EB98E071
:104F40009F938F930E944E060F900F900F900F909B
:104F50000895262F2695269526952E3178F4FC0166
:104F6000E20FF11D677021E030E001C0220F6A9569
:104F7000EAF72095828128232283089580910703F0
:104F800080FF0CC01F926F9386E998E09F938F93E8
:104F90000E944E060F900F900F900F900895209151
:104FA0002B01222329F02091820327FD0C948427D2
:104FB0000C945D2720912B01222329F0209182035C
:104FC00027FD0C94A9270C94772720912B01FC0135
:104FD0003296222331F08091820387FF02C08EE156
:104FE00001C086E0DF011D928A95E9F708950895D2
:104FF0000C94F7270C94F727CF930E94FA270E946E
:105000001A0A0E94F827C0E08C2F0E9480098111A3
:1050100004C0CF5FCA30C1F701C081E0CF910895CD
:105020000C94F7270C94102880918803843061F148
:105030000E94122880E00E94620680E00E946707BA
:105040001092080320E488E190E00FB6F894A89548
:10505000809360000FBE2093600083B7817F8460DF
:1050600083BF83B7816083BF7894889583B78E7F31
:1050700083BF0FB6F894A8958091600088618093F3
:105080006000109260000FBE08950C94F7270E94F4
:10509000E31F0E940E170E94CA1A0E9467070C9411
:1050A00045281F920F920FB60F9211248F939F9352
:1050B000AF93BF9380910803811113C080917E0349
:1050C00090917F03A0918003B09181034196A11D2F
:1050D000B11D80937E0390937F03A0938003B093D0
:1050E0008103BF91AF919F918F910F900FBE0F9051
:1050F0001F90189582E084BD93E095BD9AEF97BD0F
:1051000080936E0008952FB7F89480917E0390915C
:105110007F03A0918003B09181032FBF08952FB723
:10512000F89460917E0370917F0380918003909149
:1051300081032FBF08959C014FB7F89480917E039F
:1051400090917F03A0918003B09181034FBF821B98
:10515000930B089578941F920F920FB60F9211241B
:105160008F939F93AF93BF9380917E0390917F0322
:10517000A0918003B09181030196A11DB11D809380
:105180007E0390937F03A0938003B0938103BF912C
:10519000AF919F918F910F900FBE0F901F90189518
:1051A00081E08093E00080E28093D8001092C900F3
:1051B0008FE19EE40197F1F700C0000087E090EBDB
:1051C000DC018093910390939203A0939303B09397
:1051D00094039CE088E10FB6F894A8958093600052
:1051E0000FBE90936000FFCF9093DB018093DA01B4
:1051F00008950E946026811102C00E9410270E941B
:105200006B26809307030E947326909383038093F9
:1052100082030E946F26682F70E080E090E00E9479
:10522000D9236091DA027091DB028091DC029091C7
:10523000DD020C94112480912C030895CF93DF9309
:1052400000D01F92CDB7DEB790918803943019F546
:1052500089837B836A8382E08093E9008FEF90915A
:10526000E800815095FD06C095ED9A95F1F7000094
:105270008111F5CF8091E80085FF0DC040E050E03E
:1052800063E070E0CE0101960E940F2C8091E8004F
:105290008E778093E8000F900F900F90DF91CF9161
:1052A0000895BC0184E00C941E29BC0183E00C9499
:1052B0001E2922E02093E9002FEF3091E8002150D1
:1052C00035FD06C035ED3A95F1F700002111F5CF17
:1052D0002091E80025FF0BC040E050E066E070E060
:1052E0000E940F2C8091E8008E778093E80008954B
:1052F000CF93DF9320912B01222339F02091820359
:1053000027FF03C060E222E002C068E021E02093B2
:10531000E9002FEF3091E800215035FD06C035ED52
:105320003A95F1F700002111F5CF2091E80025FF13
:105330001DC0EC0180912B01811105C040E050E0BF
:1053400068E070E003C070E040E050E0CE010E94F1
:105350000F2C8091E8008E778093E80080E2FE01B8
:10536000ACE0B3E001900D928A95E1F7DF91CF9127
:10537000089587EF98E00E94B50580918703811119
:1053800009C00E94A02D0E94FD2D8091E200846042
:105390008093E200089583EF98E00E94B505109293
:1053A000870308958FEE98E00C94B5058BEE98E096
:1053B0000C94B50587EE98E00C94B50520910A038E
:1053C0002F5F822F62E30E94F533992319F0209317
:1053D0000A03089510920A0380910B03882371F148
:1053E00080918803843041F58091E9008F7020918D
:1053F000EC00922F917020FD90E8892B93E0909320
:10540000E9009091EB0090FF14C09091EE0097FF9F
:1054100010C09091E80095FF03C01092F100F9CF01
:105420009091E80090FF05C09091E8009E779093DE
:10543000E8008F708093E90010920B03089542E01A
:1054400061EC81E00E94192D42E261EC82E00E9451
:10545000192D42E261EC83E00C94192D80918A03AE
:10546000833009F460C030F4813071F0823009F487
:1054700099C008958A3009F485C08B3009F46BC057
:10548000893009F0A7C020C080918903813A09F0D2
:10549000A1C08091E800877F8093E80080918D0310
:1054A00090918E03892B21F460E28CE093E003C09D
:1054B00060E080E090E070E00E945A2C8091E8006B
:1054C0008B778093E800089580918903813209F0F9
:1054D00081C080918D0390918E03029708F07AC06D
:1054E0008091E800877F8093E8008091E80082FD4A
:1054F00005C0809188038111F8CF6CC02091F30022
:105500008091F20090E0922B029729F48091F100B3
:105510008B7F813021F48091F10080932C03809166
:10552000E8008B7753C080918903813A09F052C01B
:1055300080918D0390918E03892B09F04BC080914F
:10554000E800877F8093E8008091E80080FFFCCF2F
:1055500080912B0136C0809189038132D9F58091E9
:105560008D0390918E03892BA9F58091E800877FA8
:105570008093E8000E944E2D80918B0380932B0135
:105580000C94E31F80918903813221F58091E8001A
:10559000877F8093E8000E944E2D80918C0380933A
:1055A0002D03089580918903813AA1F48091E80048
:1055B000877F8093E8008091E80080FFFCCF809196
:1055C0002D038093F1008091E8008E778093E800AE
:1055D0000C944E2D08959FB7F89410920B039FBF23
:1055E00090918803943009F057C09091E9009F7022
:1055F0003091EC00232F217030FD20E8922B23E026
:105600002093E9002091EB0020FF43C02091EE00A1
:1056100027FF3FC020910903222321F02091E800B9
:1056200025FF37C01092090326E03091E80035FDD0
:1056300015C030918803343061F53091EB0035FDB1
:1056400028C0215021F481E08093090322C0EFE9B2
:10565000FFE03197F1F700C00000E7CF8093F10041
:105660008091E80085FD0AC08091E80080FFFCCFB2
:105670008091E8008E778093E80006C08FB7F89499
:1056800021E020930B038FBF9F709093E90080E08F
:1056900008959F709093E9008FEF089584B7877FF6
:1056A00084BF0FB6F894A8958091600088618093BC
:1056B0006000109260000FBE90E080E80FB6F89492
:1056C00080936100909361000FBE0E94901B0E9426
:1056D000A02D0E94FD2D8091E20084608093E20065
:1056E00078940E9491300E949A1B81E291E00E947E
:1056F000C51A86ED98E00E94B50580918803853033
:10570000C9F482ED98E00E94B50580918803853048
:1057100079F40E941428809186038823B1F30E94B3
:10572000FC27882391F30E94F92B0E94E31FEDCF01
:105730000E9447280E94CE1B0E94841B0E94831B4C
:10574000DCCF0C94A32B292F332723303105C9F04C
:1057500060F42130310581F02230310509F041C07B
:105760008BE590E02BE339E040C021323105E1F0D8
:105770002232310531F135C082E190E026E939E08D
:1057800034C099278130910549F028F0029749F5F6
:10579000EBEFF8E005C0E7E3F9E002C0E1E2F9E091
:1057A000849190E09F0121C063307105D0F4660FB1
:1057B000771FFB01EC52FE4F2081318189E090E0A0
:1057C00014C06330710568F4FB01EE0FFF1FE25354
:1057D000FE4F20813181FB01E553FE4F808190E037
:1057E00004C080E090E020E030E0FA0131832083C3
:1057F000089580E189BD82E189BD09B400FEFDCF35
:105800008091D8008F7D8093D8008091E0008260E5
:105810008093E0008091E00081FDFCCF0895CF925D
:10582000DF92EF92FF920F931F93CF93DF93EC01E0
:105830008B017A010E946D2D811133C0E114F104B6
:1058400039F0F70180819181081B190BC80FD91F0E
:10585000C12CD12C0115110519F18091E80085FDAD
:1058600016C08091E8008E778093E800E114F1047F
:1058700049F0F70180819181C80ED91ED182C08282
:1058800085E00FC00E946D2D882321F30AC0899105
:105890008093F10001501109FFEFCF1ADF0ADACF30
:1058A00080E0DF91CF911F910F91FF90EF90DF90FB
:1058B000CF90089520918F033091900326173707DA
:1058C00048F06115710539F42091E8002E77209396
:1058D000E80001C0B901FC0120E06115710579F112
:1058E000809188038823F1F18530F1F18091E800FF
:1058F00083FD3CC08091E80082FD2EC08091E800CD
:1059000080FFEBCF2091F3008091F20090E0922B8A
:105910006115710551F08830910538F4219120937B
:10592000F100615071090196F3CF21E0089709F069
:1059300020E08091E8008E778093E800CECF21119F
:10594000CFCF0AC080918803882361F0853061F051
:105950008091E80083FD0AC08091E80082FFF2CFC9
:1059600080E0089582E0089583E0089581E008953D
:1059700020918F03309190032617370748F0611567
:10598000710539F42091E8002E772093E80001C0DA
:10599000B901FC0120E06115710591F18091880346
:1059A000882309F440C0853009F43FC08091E800A5
:1059B00083FD3DC08091E80082FD2FC08091E8000A
:1059C00080FFE9CF2091F3008091F20090E0922BCC
:1059D0006115710559F08830910540F424912093A8
:1059E000F1003196615071090196F2CF21E00897DC
:1059F00009F020E08091E8008E778093E800CBCF1B
:105A00002111CCCF0AC080918803882361F08530B2
:105A100061F08091E80083FD0AC08091E80082FF78
:105A2000F2CF80E0089582E0089583E0089581E058
:105A30000895982F973068F59093E900981739F0FA
:105A40007091EC002091ED005091F00003C0242FE4
:105A5000762F50E021FD02C09F5FECCF3091EB002C
:105A60003E7F3093EB003091ED003D7F3093ED00B1
:105A70003091EB0031603093EB007093EC00209399
:105A8000ED005093F0002091EE0027FDE5CF80E07F
:105A900008958F708093E90081E0089580918903D3
:105AA00087FF11C08091E80082FD05C080918803C6
:105AB0008111F8CF11C08091E8008B770BC08091E5
:105AC0008803882349F08091E80080FFF8CF809117
:105AD000E8008E778093E80008952091E4003091EB
